:100000000C945E000C9486000C9486000C94860080
:100010000C9486000C9486000C9486000C945B0271
:100020000C9486000C9486000C9486000C94860038
:100030000C9486000C9486000C9486000C94860028
:100040000C9435030C9486000C9403030C94DD028D
:100050000C9486000C9486000C9486000C94860008
:100060000C9486000C948600020000000800020137
:100070000000030407000000000000000000000072
:1000800000250028002B0000000000240027002A83
:100090000004040404040404040202020202020331
:1000A000030303030301020408102040800102043B
:1000B000081020010204081020004A0511241FBE68
:1000C000CFEFD8E0DEBFCDBF11E0A0E0B1E0EEEFB2
:1000D000FAE002C005900D92A431B107D9F721E0F2
:1000E000A4E1B1E001C01D92AB3CB207E1F710E022
:1000F000CEE5D0E004C02197FE010E947705CD3502
:10010000D107C9F70E947F030C947D050C94000071
:1001100090E0FC01EB55FF4F24918F569F4FFC015F
:100120008491882399F090E0880F991FFC01E9578A
:10013000FF4FA591B491FC01E358FF4F8591949135
:100140008FB7F894EC91E22BEC938FBF0895AF92A8
:10015000BF92CF92DF92EF92FF920F931F93CF93B4
:10016000DF936C017B018B01040F151FEB015E0116
:10017000AE18BF08C017D10759F06991D601ED91AB
:10018000FC910190F081E02DC6010995892B79F74A
:10019000C501DF91CF911F910F91FF90EF90DF90FC
:1001A000CF90BF90AF900895FC01538D448D252FC3
:1001B00030E0842F90E0821B930B541710F0CF9601
:1001C000089501970895FC01918D828D981761F033
:1001D000A28DAE0FBF2FB11D5D968C91928D9F5F4A
:1001E0009F73928F90E008958FEF9FEF0895FC0129
:1001F000918D828D981731F0828DE80FF11D858DDC
:1002000090E008958FEF9FEF0895FC01918D228D6E
:10021000892F90E0805C9F4F821B91098F739927F3
:1002200008958EE291E00E94050121E0892B09F4F6
:1002300020E0822F089580E090E0892B29F00E9431
:10024000110181110C9400000895FC01A48DA80FE8
:10025000B92FB11DA35ABF4F2C91848D90E0019608
:100260008F739927848FA689B7892C93A089B18928
:100270008C91837080648C93938D848D981306C0C9
:100280000288F389E02D80818F7D80830895EF922D
:10029000FF920F931F93CF93DF93EC0181E0888F40
:1002A0009B8D8C8D98131AC0E889F989808185FF10
:1002B00015C09FB7F894EE89FF896083E889F989B2
:1002C00080818370806480839FBF81E090E0DF91B4
:1002D000CF911F910F91FF90EF900895F62E0B8D07
:1002E00010E00F5F1F4F0F731127E02E8C8D8E11C2
:1002F0000CC00FB607FCFACFE889F989808185FF29
:10030000F5CFCE010E942501F1CFEB8DEC0FFD2F33
:10031000F11DE35AFF4FF0829FB7F8940B8FEA89E3
:10032000FB8980818062CFCFCF93DF93EC01888DF2
:100330008823B9F0AA89BB89E889F9898C9185FD60
:1003400003C0808186FD0DC00FB607FCF7CF8C91EE
:1003500085FFF2CF808185FFEDCFCE010E94250180
:10036000E9CFDF91CF91089590E0FC01E759FF4F6D
:100370002491FC01EB55FF4F3491FC01EF56FF4FE8
:10038000E491EE23C9F0222339F0233001F1A8F4DF
:10039000213019F1223029F1F0E0EE0FFF1FE35870
:1003A000FF4FA591B4918FB7F894EC91611126C0DD
:1003B00030953E233C938FBF08952730A9F0283015
:1003C000C9F0243049F7809180008F7D03C080916F
:1003D00080008F7780938000DFCF84B58F7784BDD6
:1003E000DBCF84B58F7DFBCF8091B0008F7780937A
:1003F000B000D2CF8091B0008F7DF9CF3E2BDACF05
:100400003FB7F8948091190190911A01A0911B01B6
:10041000B0911C0126B5A89B05C02F3F19F001968D
:10042000A11DB11D3FBFBA2FA92F982F8827BC014E
:10043000CD01620F711D811D911D42E0660F771F76
:10044000881F991F4A95D1F708958F929F92AF9276
:10045000BF92CF92DF92EF92FF920E9400024B0177
:100460005C0184EFC82EDD24D394E12CF12C0E9492
:100470000002681979098A099B09683E7340810561
:100480009105A8F321E0C21AD108E108F10888EE2D
:10049000880E83E0981EA11CB11CC114D104E10494
:1004A000F10429F7FF90EF90DF90CF90BF90AF90CD
:1004B0009F908F9008951F920F920FB60F92112464
:1004C0002F933F934F935F936F937F938F939F935C
:1004D000AF93BF93EF93FF938091220190912301FB
:1004E000A0912401B0912501892B8A2B8B2BD1F16E
:1004F00090911D01E0911E01F0911F0180818927DB
:1005000080838091220190912301A0912401B091D8
:100510002501181619061A061B069CF48091220163
:1005200090912301A0912401B09125010197A10987
:10053000B1098093220190932301A0932401B093E9
:100540002501FF91EF91BF91AF919F918F917F9185
:100550006F915F914F913F912F910F900FBE0F9030
:100560001F90189580910001E8E6F0E0E4919FEF7C
:1005700090930001E13051F030F0E23069F060E03A
:100580000E94B401DECF10926E00F9CF90916F00FF
:100590009D7F90936F00F3CF909170009D7F90931B
:1005A000700091E09093B0009091B100987F9460BA
:1005B0009093B1001092B300E2CF1F920F920FB64A
:1005C0000F9211242F933F934F935F936F937F93D9
:1005D0008F939F93AF93BF93EF93FF938EE291E03E
:1005E0000E942501FF91EF91BF91AF919F918F9153
:1005F0007F916F915F914F913F912F910F900FBE1F
:100600000F901F9018951F920F920FB60F92112402
:100610002F938F939F93EF93FF93E0913E01F0917F
:100620003F018081E0914401F091450182FD1BC0B2
:100630009081809147018F5F8F73209148018217CD
:1006400041F0E0914701F0E0E25DFE4F958F80932D
:100650004701FF91EF919F918F912F910F900FBEC6
:100660000F901F9018958081F4CF1F920F920FB6B4
:100670000F9211242F933F938F939F93AF93BF9328
:100680008091150190911601A0911701B091180168
:100690003091140123E0230F2D3758F50196A11D49
:1006A000B11D209314018093150190931601A0931E
:1006B0001701B09318018091190190911A01A0912E
:1006C0001B01B0911C010196A11DB11D8093190160
:1006D00090931A01A0931B01B0931C01BF91AF919D
:1006E0009F918F913F912F910F900FBE0F901F9070
:1006F000189526E8230F0296A11DB11DD2CF78943C
:1007000084B5826084BD84B5816084BD85B5826016
:1007100085BD85B5816085BD80916E0081608093C7
:100720006E00109281008091810082608093810030
:100730008091810081608093810080918000816040
:10074000809380008091B10084608093B10080919B
:10075000B00081608093B00080917A0084608093C3
:100760007A0080917A00826080937A0080917A008A
:10077000816080937A0080917A00806880937A000B
:100780001092C10080910001883009F4ACC08F3F05
:1007900009F4BFC00E94250289E00E9488008BE016
:1007A0000E9488008AE00E948800E0913E01F0915A
:1007B0003F0182E08083E0913A01F0913B01108299
:1007C000E0913C01F0913D018FEC80831092460155
:1007D000E0914201F091430186E08083E091400185
:1007E000F0914101808180618083E0914001F0912E
:1007F0004101808188608083E0914001F091410156
:10080000808180688083E0914001F0914101808186
:100810008F7D8083C0E0D0E089E00E94880061E0A5
:1008200089E00E94B4018BE00E94880060E08BE0C8
:100830000E94B4018AE00E94880060E08AE00E9481
:10084000B4010E94250289E00E94880060E089E0EE
:100850000E94B4018BE00E94880060E08BE00E945F
:10086000B4018AE00E94880061E08AE00E94B4013D
:100870000E94250289E00E94880061E089E00E94D0
:10088000B4018BE00E94880060E08BE00E94B4011C
:100890008AE00E94880061E08AE00E94B4010E9420
:1008A000250289E00E94880060E089E00E94B4018E
:1008B0008BE00E94880061E08BE00E94B4018AE036
:1008C0000E94880060E08AE00E94B4010E94250234
:1008D000209709F4A1CF0E941101882309F49CCF2D
:1008E0000E94000099CFE8E6F0E0C491C7FD52CF26
:1008F00088E00E948800CC2309F479C0C23009F056
:100900008EC08091B100887F84608093B10089EFB0
:10091000ADC088E080930001E8E6F0E0C491CF3FED
:1009200009F438CFC13019F148F0C23009F43DC0A4
:10093000C7FD30CF88E00E948800E0CF14BC15BC12
:1009400084B5826084BD85B5816085BDE9E9F0E04C
:10095000E491F0E0EE0FFF1FE358FF4F8591949173
:10096000EDEAF0E0E491E0932101C0E0C1CF109204
:1009700080001092810080918100886080938100C6
:1009800080918100816080938100E9E9F0E0E49149
:10099000F0E0EE0FFF1FE358FF4F85919491EDEAD1
:1009A000F0E0E491E0932001A3CF1092B000109208
:1009B000B1008091B00082608093B0008091B1005E
:1009C00081608093B100E9E9F0E0E491F0E0EE0F9E
:1009D000FF1FE358FF4F8591949190931F018093DF
:1009E0001E01EDEAF0E0E491E0931D0181CF85B5B1
:1009F000887F836085BD89EF87BD8AEF90E0A0E0A6
:100A0000B0E080932A0190932B01A0932C01B09326
:100A10002D0180916E00826080936E00BBCEC1304C
:100A2000F1F480918100887F8160809381008FE75D
:100A30009EE390938900809388008AEF90E0A0E085
:100A4000B0E08093260190932701A0932801B093F2
:100A5000290180916F00826080936F009BCEC2302D
:100A600021F0C11197CE8FE7C7CF8FE78093B300F6
:100A70008AEF90E0A0E0B0E0809322019093230100
:100A8000A0932401B093250180917000826080932F
:100A9000700080CEEEE2F1E01382128288EE93E0E5
:100AA000A0E0B0E084839583A683B78385E091E0DE
:100AB0009183808385EC90E09587848784EC90E037
:100AC0009787868780EC90E0918B808B81EC90E01B
:100AD000938B828B82EC90E0958B848B86EC90E0FC
:100AE000978B868B118E128E138E148E0895EE0FB7
:0E0AF000FF1F0590F491E02D0994F894FFCFBC
:100AFE00FF000000004701A700D40094010501E3A8
:040B0E0000F70000EC
:00000001FF
